:100000000C94580A0C94890A0C94890A0C94890A55
:100010000C94890A0C94890A0C94890A0C94890A14
:100020000C94890A0C94890A0C94890A0C94890A04
:100030000C94890A0C94890A0C94890A0C94890AF4
:100040000C94890A0C94CA1E0C94890A0C94890A8F
:100050000C94890A0C94890A0C94671A0C94FB1767
:100060000C94890A0C94CF0A0C94890A0C94890A7E
:100070000C94890A0C94890A0C94890A0C94890AB4
:100080000C94890A0C94890A0C94890A0C94890AA4
:100090000C94890A0C94890A0C94890A0C944518CA
:1000A0000C94890A0C94890A0C94890A0C94890A84
:1000B0000C94890A0C94890A0C94890A0C94890A74
:1000C0000C94890A0C94890A0C94890A0C94890A64
:1000D0000C94890A0C94890A0C94890A0C94890A54
:1000E0000C94890A4615491538153C15421580159A
:1000F0004D15511557155B155F15651569156D156E
:100100008015731577157B1517171C1721172B17DB
:100110003517AE173F1747174F17591763176D1746
:100120007C178617AE1790179A17A417C31AD01A00
:10013000EC1AEE1AF01AF21AF41AF61AFE1A084A13
:10014000D73B3BCE016E84BCBFFDC12F3D6C7431EB
:100150009ABD56833DDA3D00C77F11BED9E4BB4C42
:100160003E916BAAAABE000000803F05A84CCDB20C
:10017000D44EB93836A9020C50B9918688083CA6ED
:10018000AAAA2ABE000000803F004E414E494E49B7
:100190005459494E46CDCCCC3D0AD7233C17B7D154
:1001A0003877CC2B329595E6241FB14F0A000020FA
:1001B000410000C84200401C4620BCBE4CCA1B0E79
:1001C0005AAEC59D745072696E7465722073746FF7
:1001D000707065642064756520746F206572726F3D
:1001E00072732E2046697820746865206572726F7C
:1001F0007220616E6420757365204D393939207421
:100200006F20726573746172742E202854656D704E
:1002100065726174757265206973207265736574A7
:100220002E20536574206974206166746572207293
:10023000657374617274696E6729006F6B004E6F2D
:10024000204C696E65204E756D6265722077697409
:100250006820636865636B73756D2C204C617374E3
:10026000204C696E653A20004E6F20436865636BD1
:1002700073756D2077697468206C696E65206E7582
:100280006D6265722C204C617374204C696E653A06
:100290002000636865636B73756D206D69736D61B4
:1002A0007463682C204C617374204C696E653A202D
:1002B000004C696E65204E756D6265722069732011
:1002C0006E6F74204C617374204C696E65204E759E
:1002D0006D6265722B312C204C617374204C696EF9
:1002E000653A20004572726F723A004D313130002C
:1002F0000A00207A3A200020793A200020783A201B
:1003000000426564000A00207A3A200020793A20F1
:100310000020783A200020002C00205300205900B3
:10032000473239205800504944204175746F747524
:100330006E652066696E6973686564212050757406
:1003400020746865204B702C204B6920616E6420FE
:100350004B6420636F6E7374616E747320696E7486
:100360006F20436F6E66696775726174696F6E2E78
:100370006800504944204175746F74756E6520663D
:1003800061696C6564212074696D656F7574002006
:10039000403A006F6B20543A005049442041757434
:1003A0006F74756E65206661696C656421205465A3
:1003B0006D706572617475726520746F6F20686905
:1003C000676800204B643A2000204B693A200020E7
:1003D0004B703A200020436C61736963205049449C
:1003E00020002054753A2000204B753A2000206DE3
:1003F00061783A2000206D696E3A200020643A202E
:100400000020626961733A200053657474696E67F5
:10041000732053746F726564006563686F3A0022DD
:1004200000556E6B6E6F776E20636F6D6D616E64DD
:100430003A2022007A5F6D61783A20007A5F6D6918
:100440006E3A2000795F6D61783A2000785F6D61C7
:10045000783A2000205A3A0020593A0020436F751C
:100460006E7420583A200020453A00205A3A002065
:10047000593A00583A004649524D574152455F4E4D
:10048000414D453A4D61726C696E2056313B2053A7
:100490007072696E7465722F6772626C206D617321
:1004A00068757020666F722067656E362046495207
:1004B0004D574152455F55524C3A68747470733AC7
:1004C0002F2F6769746875622E636F6D2F4572698F
:1004D0006B5A616C6D2F4D61726C696E2F2050529A
:1004E0004F544F434F4C5F56455253494F4E3A314C
:1004F0002E30204D414348494E455F545950453AAE
:100500004D656E64656C2045585452554445525FA4
:10051000434F554E543A3120555549443A303030C6
:1005200030303030302D303030302D303030302DD4
:10053000303030302D3030303030303030303030BE
:10054000300A0020573A0020453A00543A00204231
:10055000403A0020403A00202F003A00205400206A
:100560002F006F6B20543A006563686F3A0025696D
:10057000206D696E2C20256920736563000A0020B8
:100580005A3A200020593A200020583A200042656B
:100590006400205A3A0020593A0020583A00656E0B
:1005A0006473746F7073206869743A2000656368BF
:1005B0006F3A00204200204500205A0020590020B8
:1005C000204D39303720580049324320646967692B
:1005D000706F742073657474696E67733A00204499
:1005E0000020490020204D33303120500050494434
:1005F0002073657474696E67733A00205A0020593D
:100600000020204D363636205800456E6473746FD6
:10061000702061646A757374656D656E7420286DF1
:100620006D293A00205A0020590020204D323036E2
:10063000205800486F6D65206F66667365742028CA
:100640006D6D293A00204500205A002058002042B4
:100650000020540020204D32303520530041647674
:10066000616E636564207661726961626C65733A7C
:1006700020533D4D696E2066656564726174652026
:10068000286D6D2F73292C20543D4D696E20747296
:100690006176656C20666565647261746520286D9D
:1006A0006D2F73292C20423D6D696E696D756D202B
:1006B0007365676D656E742074696D6520286D7350
:1006C000292C20583D6D6178696D756D2058592031
:1006D0006A65726B20286D6D2F73292C20205A3D7E
:1006E0006D6178696D756D205A206A65726B20287E
:1006F0006D6D2F73292C2020453D6D6178696D75D6
:100700006D2045206A65726B20286D6D2F7329005E
:1007100020540020204D3230342053004163636563
:100720006C65726174696F6E3A20533D61636365F5
:100730006C65726174696F6E2C20543D72657472C1
:1007400061637420616363656C65726174696F6E67
:1007500000204500205A0020590020204D32303121
:100760002058004D6178696D756D20416363656C3B
:1007700065726174696F6E20286D6D2F7332293A2E
:1007800000204500205A0020590020204D323033EF
:100790002058004D6178696D756D206665656472DD
:1007A0006174657320286D6D2F73293A0020450010
:1007B000205A0020590020204D393220580053740F
:1007C0006570732070657220756E69743A00537499
:1007D0006F7265642073657474696E6773207265E7
:1007E000747269657665640048617264636F6465FC
:1007F000642044656661756C742053657474696E19
:100800006773204C6F61646564002020506C616EDA
:100810006E657242756666657242797465733A20D8
:10082000002046726565204D656D6F72793A200033
:10083000536570203235203230313800436F6D708F
:10084000696C65643A20002844656C74614D616B85
:1008500065722C20444D32542D626574613229003A
:10086000207C20417574686F723A200053657020B7
:10087000323520323031382031373A34303A303660
:1008800000204C61737420557064617465643A2073
:1008900000312E302E30004D61726C696E00205395
:1008A0006F667477617265205265736574002057B6
:1008B00061746368646F67205265736574002042D9
:1008C000726F776E206F75742052657365740020A7
:1008D00045787465726E616C205265736574005062
:1008E0006F7765725570007374617274003A2045B9
:1008F000787472756465722073776974636865646F
:10090000206F66662E204D415854454D502074721C
:10091000696767657265642021003A2045787472C2
:1009200075646572207377697463686564206F66A7
:10093000662E204D494E54454D50207472696767AC
:10094000657265642021004572726F723A00000082
:100950002100240027002A002D003000330001016F
:100960000000040107010A01000022002500280000
:100970002B002E00310034000201000005010801A7
:100980000B01000020002300260029002C002F006E
:1009900032000001000003010601090105050505FB
:1009A000070508080808020202020A0A08080404E7
:1009B0000404010101010101010103030303030315
:1009C0000303040707070C0C0C0C0C0C0C0C0202A4
:1009D000020206060606060606060B0B0B0B0B0BA1
:1009E0000B0B01021020200808102040102040802E
:1009F00002010201080402010102040810204080E3
:100A00008040201008040201800402018040201070
:100A100008040201080402010102040810204080B9
:100A2000010204081020408000000A0B02090C0D8E
:100A30000E08070304010000000000000000000091
:100A400000000000000000000000000000000000A6
:100A50000000000012111000000000000000000063
:100A60000000000000000000000000000000700115
:100A70002C0190012701B0012201C0011D01F001EC
:100A800018011002130130020E01600209019002E8
:100A90000401C002FF000003FA004003F5008003D8
:100AA000F000D003EB002004E6007004E100E00455
:100AB000DC004005D700C005D2004006CD00D006BE
:100AC000C8008007C3003008BE00F008B900C009A4
:100AD000B400B00AAF00B00BAA00D00CA500000E05
:100AE000A000500F9B00C0109600501291000014FF
:100AF0008C00C0158700B0178200B0197D00D01B94
:100B00007800001E730040206E0090226900F024DF
:100B1000640040275F0090295A00E02B5500102EFA
:100B2000500020304B0010324600E0334100903539
:100B30003C001037370070383200A0392D00B03A31
:100B40002800A03B2300603C1E00103D1900903D92
:100B50001400103E0F00703E0A00C03E0500003F2A
:100B6000000024F4D43050C38E20C2A24017828BE0
:100B70007011127A910D816CD90AA861E108C758E9
:100B80006607615143061E4B5D05C145A7041A4126
:100B90001104093D9803713931034036DB02653396
:100BA0009102D4305402802E1D02632CEE01752A6E
:100BB000C501B028A001102781018F2564012B24D5
:100BC0004B01E0223401AC211F018D200D01801F5B
:100BD000FC00841EED00971DDF00B81CD200E61B50
:100BE000C600201BBC00641AB200B219A8000A1982
:100BF000A0006A189900D117910040178B00B51614
:100C0000840031167E00B31579003A157300C714BD
:100C10006F0058146A00EE136600881363002513F2
:100C20005E00C7125B006C12570015125400C11110
:100C3000510070114F0021114B00D61049008D104A
:100C400047004610440002104200C00F4000800FD1
:100C50003E00420F3C00060F3B00CB0E3800930EC7
:100C600037005C0E3500270E3400F30D3200C10D45
:100C70003100900D3000600D2E00320D2D00050D5D
:100C80002C00D90C2B00AE0C2900850C29005C0C23
:100C90002700350C27000E0C2600E80B2400C40B9F
:100CA0002400A00B23007D0B23005A0B2100390BDD
:100CB0002100180B2000F80A1F00D90A1E00BB0AE9
:100CC0001E009D0A1D00800A1D00630A1C00470AC1
:100CD0001B002C0A1B00110A1A00F7091A00DD0973
:100CE0001900C4091900AB091900920917007B0902
:100CF0001800630917004C09160036091600200970
:100D000016000A091500F5081500E0081400CC08C3
:100D10001400B8081400A4081400900813007D08FB
:100D200012006B081300580812004608120034081D
:100D30001100230811001208110001081100F0072A
:100D40001000E0071000D0071000C0071000B00727
:100D50000F00A107100091070E0083070F00740712
:100D60000F0065070E0057070E0049070E003B07EE
:100D70000D002E070E0020070D0013070D000607BB
:100D80000D00F9060C00ED060D00E0060C00D4067F
:100D90000C00C8060C00BC060C00B0060C00A40633
:100DA0000B0099060C008D060B0082060B007706DF
:100DB0000B006C060B0061060A0057060B004C0680
:100DC0000A0042060A0038060A002E060A00240617
:100DD0000A001A060A001006090007060A00FD05A7
:100DE0000900F4050900EB050900E2050900D90531
:100DF0000900D0050900C7050900BE050900B505B1
:100E00000800AD050800A50509009C05080094052B
:100E100008008C050800840508007C05080074059E
:100E200008006C050700650508005D05070056050C
:100E300008004E0507004705070040050800380573
:100E40000700310507002A050700230507001C05D8
:100E50000600160507000F05070008050600020535
:100E60000700FB040600F5040700EE040600E80492
:100E70000600E2040700DB040600D5040600CF04E8
:100E80000600C9040600C3040600BD040600B7043A
:100E90000600B1040500AC040600A6040600A00488
:100EA00005009B04060095040500900406008A04D2
:100EB000050085040500800406007A040500750419
:100EC0000500700405006B0405006604050061045C
:100ED00005005C04050057040500520405004D049C
:100EE000050048040500430405003E0404003A04DC
:100EF000050035040500300404002C040500270417
:100F00000400230405001E0404001A04040016044F
:100F10000500110404000D04040009040500040484
:100F2000040000040400FC030400F8030400F403BC
:100F30000400F0030400EC030400E8030400E403ED
:100F40000400E0030400DC030400D8030400D4031D
:100F50000400D0030400CC030400C8030300C5034D
:100F6000030024F404D9201BC40C5C0E9804C409AB
:100F70005F0265077101F405F900FB04B300480442
:100F80008700C10369005803550003034500BE02F2
:100F90003A008402310053022A002902250004028B
:100FA0002000E4011C00C8011900AF0117009801DE
:100FB000140084011300710110006101100051013F
:100FC0000E0043010D0036010B002B010B00200128
:100FD0000B00150109000C01090003010800FB00CA
:100FE0000800F3000800EB000700E4000600DE0044
:100FF0000600D8000600D2000600CC000500C7009D
:101000000500C2000500BD000400B9000400B500E1
:101010000400B1000400AD000400A9000400A50014
:101020000300A20003009F0004009B00030098003F
:1010300003009500020093000300900003008D0060
:1010400002008B000300880002008600020084007A
:101050000300810002007F0002007D0002007B008F
:10106000020079000200770001007600020074009F
:10107000020072000100710002006F0002006D00AA
:1010800001006C0002006A000100690002006700B4
:1010900001006600010065000100640002006200BA
:1010A000010061000100600001005F0002005D00BE
:1010B00001005C0001005B0001005A0001005900C2
:1010C00001005800010057000100560001005500C2
:1010D00001005400010053000000530001005200C1
:1010E000010051000100500001004F0001004E00BE
:1010F00000004E0001004D0001004C0001004B00BB
:1011000000004B0001004A000100490001004800B6
:1011100000004800010047000100460000004600B2
:1011200001004500000045000100440001004300AB
:1011300000004300010042000000420001004100A5
:10114000000041000100400001003F0000003F009E
:1011500001003E0000003E0001003D0000003D0097
:1011600001003C0000003C0000003C0001003B008E
:1011700000003B0001003A0000003A000100390085
:10118000000039000100380000003800000038007D
:101190000100370000003700010036000000360073
:1011A0000000360001003500000035000000350069
:1011B000010034000000340000003400010033005E
:1011C0000000330000003300010032000000320054
:1011D0000000320001003100000031000000310049
:1011E00001003000000030000000300001002F003E
:1011F00000002F0000002F0000002F0001002E0033
:1012000000002E0000002E0001002D0000002D0027
:1012100000002D0000002D0001002C0000002C001B
:1012200000002C0000002C0001002B0000002B000F
:1012300000002B0000002B0001002A0000002A0003
:1012400000002A0000002A000100290000002900F7
:1012500000002900000029000000290001002800EA
:1012600000002800000028000000280000002800DE
:1012700001002700000027000000270000002700D1
:1012800000002700010026000000260000002600C4
:1012900000002600000026000100250000002500B7
:1012A00000002500000025000000250000002500AA
:1012B000010024000000240000002400000024009D
:1012C0000000240001002300000023000000230090
:1012D0000000230000002300000023000000230082
:1012E0000100220000002200000022000000220075
:1012F0000000220000002200010021000000210067
:101300000000210000002100000021000000210059
:10131000000021000100200000002000000020004B
:10132000000020000000200000002000000020003D
:101330000000200001001F0000001F0000001F002F
:1013400000001F0000001F0000001F0000001F0021
:1013500001001E0000001E0000001E0000001E0014
:101360000000202D20496E76616C696420657874D8
:101370007275646572206E756D6265722021005011
:1013800072696E7465722068616C7465642E206B7E
:10139000696C6C28292063616C6C65642100507253
:1013A000696E7465722073746F7070656420647503
:1013B0006520746F206572726F72732E2046697893
:1013C00020746865206572726F7220616E6420758A
:1013D0007365204D39393920746F207265737461DB
:1013E00072742E202854656D706572617475726513
:1013F0002069732072657365742E205365742069AB
:1014000074206166746572207265737461727469A8
:101410006E67290000000843000008430080F7437E
:10142000000008C3000008C3000000000000000026
:10143000000000000080F7430000A0400000A04032
:101440000000A04000008843000088430080F7436C
:1014500001010120746F6F206C6F6E6720657874D6
:10146000727573696F6E2070726576656E746564EF
:101470000020636F6C6420657874727573696F6E99
:101480002070726576656E746564006563686F3A96
:1014900000203D20005D202B20005D5B005B0020D4
:1014A00000526573656E643A20006F6B00005068EF
:1014B00011241FBECFEFD1E2DEBFCDBF00E00CBFD5
:1014C00014E0A0E0B2E0E2EAF6EE00E00BBF02C0FA
:1014D00007900D92AA37B107D9F72EE1AAE7B4E039
:1014E00001C01D92AF38B207E1F71AE0C8E5DAE0B3
:1014F00000E006C021970109802FFE010E941073B1
:10150000C735D10780E00807A9F70E9487490C94E6
:101510004F730C940000089580E090E00895FC0162
:10152000CB01BA012491222341F03091C00035FF54
:10153000FCCF2093C6003196F5CF4AE00C94754756
:10154000EF92FF921F93CF93DF937C01C62FD72F8B
:10155000142F160FF701808191810E94116F8993DA
:10156000F701808191810196918380831C13F2CFD2
:10157000DF91CF911F91FF90EF900895FC01CB0177
:10158000BA012491222341F03091C00035FFFCCFF5
:101590002093C6003196F5CF42E00C94FC471F9291
:1015A0000F920FB60F9211240BB60F922F933F9309
:1015B0004F936F937F938F939F93EF93FF934091FC
:1015C000C6002091FA043091FB04C90101968F777F
:1015D00099276091FC047091FD048617970741F0EC
:1015E000F901E658FB4F40839093FB048093FA0483
:1015F000FF91EF919F918F917F916F914F913F91CB
:101600002F910F900BBE0F900FBE0F901F9018954B
:101610008F929F92AF92BF92CF92DF92EF92FF9202
:101620000F931F93CF93DF93CDB7DEB7C055D1098A
:101630000FB6F894DEBF0FBECDBF80E1E8EAF2E05E
:10164000DE01AF5BBF4F01900D928A95E1F780E11B
:10165000E8EBF2E0DE01D19601900D928A95E1F778
:1016600080E1E8ECF2E0DE01919601900D928A951E
:10167000E1F7FE01EF5BFF4F68E77EE1AE014F5CF3
:101680005F4F27EB37E06E0111E2C10ED11C85E9F7
:1016900097E07F01A0E1EA0EF11C86018190919014
:1016A000A190B190DB018D929D92AD92BD92BD0152
:1016B000DA018D909D90AD90BD90AD01D9018D92D4
:1016C0009D92AD92BD929D01D6018D909D90AD9061
:1016D000BD906D01DC018D929D92AD92BD92CD01C8
:1016E000EE15FF05D9F60E94FE2580E090E0AAEFF6
:1016F000B3E48093910790939207A0939307B093DC
:10170000940780E090E8ABE3B5E480938D07909375
:101710008E07A0938F07B0939007109289071092BD
:101720008A0710928B0710928C0780E29EE4A0E05B
:10173000B0E08093810790938207A0938307B093D2
:1017400084071092850710928607109287071092DF
:10175000880780E090E0A0EAB1E480937D07909351
:101760007E07A0937F07B0938007809379079093BB
:101770007A07A0937B07B0937C078093C707909369
:10178000C807A093C907B093CA071092EA0710923E
:10179000EB071092EC071092ED071092E6071092FB
:1017A000E7071092E8071092E9071092E2071092FB
:1017B000E3071092E4071092E50710927507109264
:1017C000760710927707109278071092710710929F
:1017D0007207109273071092740710926D0710929F
:1017E0006E0710926F071092700780E090E0A0E003
:1017F000B0E88093DD059093DE05A093DF05B093FC
:10180000E00587ED93EAA4E4B1E480932D02909380
:101810002E02A0932F02B09330028AE29DECAEED2F
:10182000BDE38093290290932A02A0932B02B093E8
:101830002C0280ED91EEACEAB3E480932502909304
:101840002602A0932702B09328020E94961E20E051
:1018500030E0C12CD12C80E2E82E82E4F82E80E02A
:1018600090E0AC01420F531FFA01E151F84FC082E2
:10187000D182E282F382FA01ED54F74F1082118295
:10188000128213824C96843C910559F72C5F3F4F8E
:101890002C31310521F780E2E8EDF2E0DE0111960E
:1018A00001900D928A95E1F7FE013196A5E0B2E034
:1018B00041915191619171914D935D936D937D93A0
:1018C000E017F107A9F7E9E1F4E08491882341F0FA
:1018D0009091C00095FFFCCF8093C6003196F5CF64
:1018E000E8EEF7E08491882341F09091C00095FFE5
:1018F000FCCF8093C6003196F5CF8091C00085FF64
:10190000FCCF8AE08093C600C05BDF4F0FB6F8942F
:10191000DEBF0FBECDBFDF91CF911F910F91FF9022
:10192000EF90DF90CF90BF90AF909F908F900895F1
:10193000CF93DF93C9E1D4E0FE018491882341F085
:101940009091C00095FFFCCF8093C6003196F5CFF3
:10195000EEEBF7E08491882341F09091C00095FF71
:10196000FCCF8093C6003196F5CF8091C00085FFF3
:10197000FCCF8AE08093C600FE018491E9E1F4E0A7
:10198000882349F09091C00095FFFCCF8093C6005A
:1019900031968491F5CF4091781E5091791E6091D7
:1019A0007A1E70917B1E86EB97E0E8DD40917C1EED
:1019B00050917D1E60917E1E70917F1E83EB97E09B
:1019C000DDDD4091801E5091811E6091821E7091DC
:1019D000831E80EB97E0D2DD4091841E5091851EDE
:1019E0006091861E7091871E8DEA97E0C7DD809119
:1019F000C00085FFFCCF8AE08093C600FE01849181
:101A0000E9E1F4E0882349F09091C00095FFFCCF14
:101A10008093C60031968491F5CFE3E9F7E0849195
:101A2000882341F09091C00095FFFCCF8093C600C1
:101A30003196F5CF8091C00085FFFCCF8AE080937E
:101A4000C600FE018491E9E1F4E0882349F0909119
:101A5000C00095FFFCCF8093C60031968491F5CFEE
:101A60004091B7075091B8076091B9077091BA07D4
:101A70008AE897E083DD4091BB075091BC076091F5
:101A8000BD077091BE0787E897E078DD4091BF07FA
:101A90005091C0076091C1077091C20784E897E038
:101AA0006DDD4091C3075091C4076091C5077091E7
:101AB000C60781E897E062DD8091C00085FFFCCF1A
:101AC0008AE08093C600FE018491E9E1F4E0882376
:101AD00049F09091C00095FFFCCF8093C6003196ED
:101AE0008491F5CFE3E6F7E08491882341F090916B
:101AF000C00095FFFCCF8093C6003196F5CF809152
:101B0000C00085FFFCCF8AE08093C600FE0184916F
:101B1000E9E1F4E0882349F09091C00095FFFCCF03
:101B20008093C60031968491F5CF409195075091EE
:101B3000960760919707709198078AE597E0EFDC28
:101B40004091990750919A0760919B0770919C076B
:101B500087E597E0E4DC40919D0750919E076091F6
:101B60009F077091A00784E597E0D9DC4091A10719
:101B70005091A2076091A3077091A40781E597E0B7
:101B8000CEDC8091C00085FFFCCF8AE08093C60048
:101B9000FE018491E9E1F4E0882349F09091C000CE
:101BA00095FFFCCF8093C60031968491F5CFECE190
:101BB000F7E08491882341F09091C00095FFFCCF1D
:101BC0008093C6003196F5CF8091C00085FFFCCF91
:101BD0008AE08093C600FE018491E9E1F4E0882365
:101BE00049F09091C00095FFFCCF8093C6003196DC
:101BF0008491F5CF4091910750919207609193079E
:101C00007091940783E197E0B9DC40918D07509182
:101C10008E0760918F077091900780E197E0AEDCAE
:101C20008091C00085FFFCCF8AE08093C600FE0152
:101C30008491E9E1F4E0882349F09091C00095FF98
:101C4000FCCF8093C60031968491F5CFEDE5F6E0A8
:101C50008491882341F09091C00095FFFCCF809340
:101C6000C6003196F5CF8091C00085FFFCCF8AE099
:101C70008093C600FE018491E9E1F4E0882349F0F5
:101C80009091C00095FFFCCF8093C600319684915F
:101C9000F5CF4091890750918A0760918B07709129
:101CA0008C0784E596E06ADC4091850750918607B1
:101CB000609187077091880781E596E05FDC40912D
:101CC00081075091820760918307709184078EE4A9
:101CD00096E025DC40917D0750917E0760917F075B
:101CE000709180078BE496E049DC40917907509130
:101CF0007A0760917B0770917C0788E496E03EDC70
:101D00004091C7075091C8076091C9077091CA07F1
:101D100085E496E033DC8091C00085FFFCCF8AE04B
:101D20008093C600FE018491E9E1F4E0882349F044
:101D30009091C00095FFFCCF8093C60031968491AE
:101D4000F5CFE3E3F6E08491882341F09091C00061
:101D500095FFFCCF8093C6003196F5CF8091C000EF
:101D600085FFFCCF8AE08093C600FE018491E9E103
:101D7000F4E0882349F09091C00095FFFCCF809358
:101D8000C60031968491F5CF4091E2075091E30768
:101D90006091E4077091E5078AE296E0EFDB4091FD
:101DA000E6075091E7076091E8077091E90787E23D
:101DB00096E0E4DB4091EA075091EB076091EC0775
:101DC0007091ED0784E296E0D9DB8091C00085FF39
:101DD000FCCF8AE08093C600FE018491E9E1F4E043
:101DE000882349F09091C00095FFFCCF8093C600F6
:101DF00031968491F5CFEAE0F6E08491882341F0B2
:101E00009091C00095FFFCCF8093C6003196F5CF2E
:101E10008091C00085FFFCCF8AE08093C600FE0160
:101E20008491E9E1F4E0882349F09091C00095FFA6
:101E3000FCCF8093C60031968491F5CF40916D0719
:101E400050916E0760916F077091700781E096E086
:101E500095DB409171075091720760917307709103
:101E600074078EEF95E08ADB4091750750917607F5
:101E700060917707709178078BEF95E07FDB809119
:101E8000C00085FFFCCF8AE08093C600FE018491EC
:101E9000E9E1F4E0882349F09091C00095FFFCCF80
:101EA0008093C60031968491F5CFEDEEF5E08491F4
:101EB000882341F09091C00095FFFCCF8093C6002D
:101EC0003196F5CF8091C00085FFFCCF8AE08093EA
:101ED000C600FE018491E9E1F4E0882349F0909185
:101EE000C00095FFFCCF8093C60031968491F5CF5A
:101EF00040912D0250912E0260912F02709130027C
:101F000084EE95E03BDB2DEB37E346E05EE360914A
:101F1000290270912A0280912B0290912C020E943A
:101F20004E70AB01BC0181EE95E028DB2DEB37E371
:101F300046E05EE3609125027091260280912702BF
:101F4000909128020E946468AB01BC018EED95E07F
:101F500015DB8091C00085FFFCCF8AE08093C6002E
:101F6000FE018491E9E1F4E0882349F09091C000FA
:101F700095FFFCCF8093C60031968491F5CFE8ECB5
:101F8000F5E08491882341F09091C00095FFFCCF4B
:101F90008093C6003196F5CF8091C00085FFFCCFBD
:101FA0008AE08093C600FE01C491E9E1F4E0CC230D
:101FB00049F08091C00085FFFCCFC093C6003196E8
:101FC000C491F5CF4091050250910602609107023D
:101FD000709108028FEB95E0D1DA4091090250919F
:101FE0000A0260910B0270910C028CEB95E0C6DA4C
:101FF00040910D0250910E0260910F0270911002FB
:1020000089EB95E0BBDA4091110250911202609188
:1020100013027091140286EB95E0B0DA409115023C
:1020200050911602609117027091180283EB95E0AF
:10203000A5DA8091C00085FFFCCF8AE08093C600BE
:10204000DF91CF9108954F925F926F927F928F921E
:102050009F92AF92BF92CF92DF92EF92FF920F9337
:102060001F93CF93DF93CDB7DEB768970FB6F89481
:10207000DEBF0FBECDBF84E690E0988F8F8B86E5E4
:1020800091E3A1E3B0E089839A83AB83BC8344E00E
:10209000BE016B5F7F4FCE01479652DA43E050E0BE
:1020A000BE016B5F7F4FCE0101960E944173892B69
:1020B00009F048C140E168E77EE1CE01479640DA89
:1020C00040E167EB77E0CE0147963ADA40E165E917
:1020D00077E0CE01479634DA0E94FE2544E061E9BC
:1020E00077E0CE0147962CDA44E06DE877E0CE0148
:1020F000479626DA44E069E877E0CE01479620DA91
:1021000044E065E877E0CE0147961ADA44E061E8FA
:1021100077E0CE01479614DA44E06DE777E0CE0130
:1021200047960EDA44E069E777E0CE01479608DA91
:1021300044E067EC77E0CE01479602DA4CE062EECD
:1021400077E0CE014796FCD94CE06DE677E0CE0112
:102150004796F6D942E0BE016B5E7F4FCE014796AF
:10216000EFD942E0BE016D5E7F4FCE014796E8D9C0
:1021700042E0BE016F5E7F4FCE014796E1D942E05B
:10218000BE01615F7F4FCE014796DAD942E0BE01C2
:10219000635F7F4FCE014796D3D942E0BE01655FB2
:1021A0007F4FCE014796CCD944E06DED75E0CE016E
:1021B0004796C6D944E06DE272E0CE014796C0D999
:1021C00044E069E272E0CE014796BAD944E065E2A4
:1021D00072E0CE014796B4D942E0BE01675F7F4FFF
:1021E000CE014796ADD942E66BE775E0CE01479642
:1021F000A7D942E669E175E0CE014796A1D99FEEE5
:10220000A92E97E0B92E23EB822E28E0922EC12C26
:10221000D12CE12CF12C00E010E025014E0C5F1CCC
:1022200038016C0C7D1CF301E558FA4F6081718117
:10223000072E000C880B990B0E94156C20E030E0F3
:1022400048EC52E40E944E70F201608371838283F5
:10225000938324014E0C5F1CF301E75EFA4F60810B
:102260007181072E000C880B990B0E94156C20E0E1
:1022700030E048EC52E40E944E70F20160837183BA
:1022800082839383025F1F4FFCE1EF0EF11C023645
:10229000110519F682E0C80ED11CE4E0AE0EB11CA7
:1022A000F4E08F0E911C8EE0C816D10409F0B1CF76
:1022B00040E169E075E0CE01479642D989E0E82E19
:1022C00085E0F82E05E012E0F701619171917F0140
:1022D000072E000C880B990B0E94156C20E030E053
:1022E00048EC52E40E944E70F8016193719381931F
:1022F00091938F01F2E005321F0731F70E94961E7D
:10230000E9E1F4E08491882341F09091C00095FFC9
:10231000FCCF8093C6003196F5CFEEECF7E08491C8
:10232000882341F09091C00095FFFCCF8093C600B8
:102330003196F5CF8091C00085FFFCCF8AE0809375
:10234000C60001C065D9F4DA68960FB6F894DEBF0E
:102350000FBECDBFDF91CF911F910F91FF90EF90F6
:10236000DF90CF90BF90AF909F908F907F906F90B5
:102370005F904F900895EF92FF920F931F93CF932A
:10238000DF931F921F92CDB7DEB7269A2E9882E078
:102390008093C0001092C50087E08093C4008091B4
:1023A000C10080618093C1008091C10088608093EA
:1023B000C1008091C10080688093C100E7EEF8E021
:1023C0008491882341F09091C00095FFFCCF8093C9
:1023D000C6003196F5CF8091C00085FFFCCF8AE022
:1023E0008093C60088E695E0FC012491222341F009
:1023F0003091C00035FFFCCF2093C6003196F5CF59
:1024000024B720FF14C0EFEDF8E03491332341F0FE
:102410004091C00045FFFCCF3093C6003196F5CF08
:102420003091C00035FFFCCF3AE03093C60021FF69
:1024300014C0EFECF8E03491332341F04091C00038
:1024400045FFFCCF3093C6003196F5CF3091C000E8
:1024500035FFFCCF3AE03093C60022FF14C0EEEB0C
:10246000F8E03491332341F04091C00045FFFCCFA8
:102470003093C6003196F5CF3091C00035FFFCCFC8
:102480003AE03093C60023FF14C0EEEAF8E034913E
:10249000332341F04091C00045FFFCCF3093C6008C
:1024A0003196F5CF3091C00035FFFCCF3AE0309344
:1024B000C60025FF14C0EEE9F8E02491222341F084
:1024C0003091C00035FFFCCF2093C6003196F5CF88
:1024D0002091C00025FFFCCF2AE02093C60014BE47
:1024E000E7E9F8E02491222341F03091C00035FF64
:1024F000FCCF2093C6003196F5CFE1E9F8E02491B6
:10250000222341F03091C00035FFFCCF2093C6005C
:102510003196F5CF2091C00025FFFCCF2AE0209313
:10252000C600FC012491E8E6F5E0222349F0309151
:10253000C00035FFFCCF2093C60031962491F5CF23
:10254000E1E8F8E02491222341F03091C00035FF0A
:10255000FCCF2093C6003196F5CFECE6F8E024914D
:10256000222341F03091C00035FFFCCF2093C600FC
:102570003196F5CFE0E6F8E02491222341F0309146
:10258000C00035FFFCCF2093C6003196F5CFE7E4BD
:10259000F8E02491222341F03091C00035FFFCCFB8
:1025A0002093C6003196F5CF2091C00025FFFCCFC7
:1025B0002AE02093C600ECE3F8E02491222341F0C6
:1025C0003091C00035FFFCCF2093C6003196F5CF87
:1025D000E0E3F8E02491222341F03091C00035FF80
:1025E000FCCF2093C6003196F5CF2091C00025FF87
:1025F000FCCF2AE02093C600FC018491E8E6F5E0D8
:10260000882349F09091C00095FFFCCF8093C600CD
:1026100031968491F5CFE1E2F8E08491882341F08E
:102620009091C00095FFFCCF8093C6003196F5CF06
:102630002091891E30918A1ECE0101962115310507
:1026400019F48F589E4102C0821B930B9A83898391
:1026500069817A81072E000C880B990B0E94EA474A
:10266000EAE0F8E08491882341F09091C00095FF62
:10267000FCCF8093C6003196F5CF60E473E180E033
:1026800090E00E94EA478091C00085FFFCCF8AE07D
:102690008093C6001092FE041092FF041092000571
:1026A00010920105D0DC1092D41D1092D51D10920D
:1026B000D61D1092D71D2091290230912A024091F7
:1026C0002B0250912C0260E070E08FE793E40E94AF
:1026D0004E706093D01D7093D11D8093D21D909346
:1026E000D31D249A8091010180648093010180911F
:1026F00001018062809301018091010180648093D7
:10270000010187ED80937A0010927E0010927D0087
:1027100080917D00806280937D0080E888BD8091FB
:102720006E00846080936E006AEF70E080E090E05D
:102730001ED485E090E09093CF1D8093CE1D60E085
:1027400080914E0290914F020E94EB1B20E030E0FE
:1027500040EA50E40E940F6C87FF0AC080914E024D
:1027600090914F02409790934F0280934E02E7CF93
:102770008FEF90E0909357028093560260E0809133
:10278000CB099091CC090E94EB1B20E030E04FE791
:1027900053E40E949D71181654F48091CB099091D6
:1027A000CC0940969093CC098093CB09E7CF109247
:1027B000CD1D1092CC1D80E1E8E6FEE1DF011D9207
:1027C0008A95E9F71092541E1092551E1092561ECB
:1027D0001092571E1092581E1092591E10925A1E97
:1027E00010925B1E10925C1E10925D1E10925E1E77
:1027F00010925F1E1092601E1092611E1092621E57
:102800001092631E1092641E1092651E1092661E36
:102810001092671E819A879A80910A018260809344
:102820000A010E9A3B9A579A5F9A829A8A9A8091E5
:1028300007018160809307019FB7F8948091080198
:102840008160809308019FBF0A9A129A3F9A479A23
:1028500052985A9A6D98759A809104018D7F809351
:1028600004019FB7F894809105018260809305016F
:102870009FBF53985B9A809A88985F9A1092CF076F
:10288000869A8E988A9A1092D00780910A01886061
:1028900080930A019FB7F89480910B01877F809302
:1028A0000B019FBF9FB7F8948091080181608093CE
:1028B00008019FBF1092D1070C9A1498129A399A66
:1028C0004198809181008F7E80938100809181006A
:1028D000886080938100809180008D7F809380004C
:1028E000809180008E7F80938000809180008F7324
:1028F00080938000809180008F7C80938000809105
:102900008100887F82608093810080E090E49093D2
:102910008900809388001092850010928400809135
:102920006F00826080936F0081E080930002789452
:10293000BFEFE3EDF0E3B150E040F040E1F700C05D
:1029400000001092F1091092F0091092ED09109216
:10295000EE091092FF098093010A1092000A61E0CB
:1029600084E1D3D161E085E1D0D18091B9008E7F3F
:102970008093B9008091B9008D7F8093B90088E47D
:102980008093B80085E48093BC0085E0E82E82E067
:10299000F82E00E010E0D7014D915D916D917D9191
:1029A0007D01C8010E949F410F5F1F4F0930110533
:1029B00091F70F900F90DF91CF911F910F91FF90A2
:1029C000EF900895EF92FF921F93CF93DF937C01D6
:1029D000C62FD72F142F160F6991F701808191818F
:1029E0000E94196FF7018081918101969183808304
:1029F0001C13F2CFDF91CF911F91FF90EF900895BC
:102A0000CF92DF92EF92FF920F931F93CF93DF93BA
:102A10006C017A018B01C0E0D0E0CE15DF0589F0B2
:102A2000D8016D918D01D601ED91FC910190F0815D
:102A3000E02DC6011995892B11F47E0102C0219663
:102A4000ECCFC701DF91CF911F910F91FF90EF90D5
:102A5000DF90CF90089590E0FC013197E231F105CD
:102A600008F04EC08827EE58FF4F8F4F0C9410731C
:102A7000809180008F7703C0809180008F7D80934C
:102A80008000089580918000877FF9CF84B58F778B
:102A900002C084B58F7D84BD08958091B0008F778A
:102AA00003C08091B0008F7D8093B0000895809125
:102AB00090008F7707C0809190008F7D03C0809138
:102AC0009000877F8093900008958091A0008F7779
:102AD00007C08091A0008F7D03C08091A000877FF8
:102AE0008093A0000895809120018F7707C0809186
:102AF00020018F7D03C080912001877F809320017A
:102B000008953FB7F8948091880A9091890AA0911E
:102B10008A0AB0918B0A26B5A89B05C02F3F19F0F1
:102B20000196A11DB11D3FBFBA2FA92F982F88274D
:102B3000820F911DA11DB11DBC01CD0142E0660FA8
:102B4000771F881F991F4A95D1F7089585ED8093C7
:102B5000BC008091BC0084FDFCCF1092FF09089559
:102B600040915E0A262F30E0240F311D21323105BD
:102B7000DCF42091FF092430C9F4FC0180E090E0EE
:102B8000861758F430915E0A2191DC01A45CB54FA0
:102B9000A30FB11D2C930196F3CF80915E0A680FAD
:102BA00060935E0A80E0089581E0089582E00895D0
:102BB000089581E090E03091F1092091F0093217F9
:102BC00010F480E090E091958195910908958091AD
:102BD000F1099091F009891730F48F5F8093F10922
:102BE00080E090E008958FEF9FEF08958091F009C5
:102BF00090E02091F109821B91090895CF92DF9214
:102C0000EF92FF920F931F93CF93DF937C01262FB8
:102C1000972F8A018091EF09882391F0C62FD72F33
:102C20006E01C40ED51ECC15DD0569F06991D70182
:102C3000ED91FC910190F081E02DC7011995F3CF42
:102C4000642F822F8DDFC801DF91CF911F910F91EB
:102C5000FF90EF90DF90CF900895CF93DF931F9276
:102C6000CDB7DEB769832091EF092223D1F02091FF
:102C7000EE09203240F021E030E0FC013383228372
:102C800080E090E014C08091ED09E82FF0E0E3537C
:102C9000F64F998190838F5F8093ED098093EE09C1
:102CA00004C061E0CE0101965BDF81E090E00F900F
:102CB000DF91CF9108950E943273CF93DF93282F35
:102CC00030E0F901E85DF54F8491F901EE51F64FDE
:102CD000D491F901E456F64FC491CC2389F08111C7
:102CE000BADEEC2FF0E0EE0FFF1FEE57F64FA59186
:102CF000B491EC91ED2381E090E021F480E002C0FA
:102D000080E090E0DF91CF9108951F93CF93DF9300
:102D1000282F30E0F901E85DF54F8491F901EE517B
:102D2000F64FD491F901E456F64FC491CC23C1F08B
:102D3000162F811190DEEC2FF0E0EE0FFF1FE85907
:102D4000F64FA591B4918FB7F894111105C09C91DD
:102D5000ED2FE095E92302C0EC91ED2BEC938FBFB2
:102D6000DF91CF911F910895CF93DF9390E0FC0105
:102D7000EE51F64F2491FC01E456F64F84918823DE
:102D800061F190E0880F991FFC01E25BF64FC5915D
:102D9000D491FC01E859F64FA591B491611109C095
:102DA0009FB7F8948881209582238883EC912E2305
:102DB0000BC0623061F49FB7F8943881822F809500
:102DC00083238883EC912E2B2C939FBF06C08FB753
:102DD000F894E8812E2B28838FBFDF91CF9108953F
:102DE0001F93CF93DF93182FEB0161E0BDDF209796
:102DF00011F460E004C0CF3FD10531F461E0812FD0
:102E0000DF91CF911F9181CFE12FF0E0E85DF54F89
:102E1000E4914E2F50E0FA013197E231F10508F0CC
:102E20009DC08827EC57FF4F8F4F0C94107384B5CB
:102E3000806884BDC7BD97C084B5806284BDC8BDAD
:102E400092C080918000806880938000D093890038
:102E5000C093880088C08091800080628093800049
:102E6000D0938B00C0938A007EC0809180008860E0
:102E700080938000D0938D00C0938C0074C08091AB
:102E8000B00080688093B000C093B3006CC08091A4
:102E9000B00080628093B000C093B40064C08091A1
:102EA0009000806880939000D0939900C093980020
:102EB0005AC080919000806280939000D0939B00D4
:102EC000C0939A0050C080919000886080939000D9
:102ED000D0939D00C0939C0046C08091A000806864
:102EE0008093A0008091A0008F7B8093A000D0935E
:102EF000A900C093A80037C08091A0008062809391
:102F0000A000D093AB00C093AA002DC08091A00078
:102F100088608093A000D093AD00C093AC0023C024
:102F200080912001806880932001D0932901C09373
:102F3000280119C080912001806280932001D093E4
:102F40002B01C0932A010FC08091200188608093DB
:102F50002001D0932D01C0932C0105C0C038D105AC
:102F60000CF04CCF46CFDF91CF911F9108958F92F7
:102F70009F92AF92BF92CF92DF92EF92FF926B013E
:102F80007C01BFDD4B015C01C114D104E104F104FB
:102F9000E9F0B7DDDC01CB0188199909AA09BB0961
:102FA000883E9340A105B10578F321E0C21AD1080B
:102FB000E108F10888EE880E83E0981EA11CB11C80
:102FC000C114D104E104F10421F7DECFFF90EF90AA
:102FD000DF90CF90BF90AF909F908F9008952FB7C4
:102FE000F8946091840A7091850A8091860A909184
:102FF000870A2FBF08951F920F920FB60F921124C8
:103000002F933F938F939F93AF93BF938091840AA5
:103010009091850AA091860AB091870A3091830A1F
:1030200023E0230F2D3720F40196A11DB11D05C00B
:1030300026E8230F0296A11DB11D2093830A8093D9
:10304000840A9093850AA093860AB093870A809198
:10305000880A9091890AA0918A0AB0918B0A0196F8
:10306000A11DB11D8093880A9093890AA0938A0AB2
:10307000B0938B0ABF91AF919F918F913F912F9108
:103080000F900FBE0F901F9018951F920F920FB6C2
:103090000F9211240BB60F922F933F934F935F9390
:1030A0006F937F938F939F93AF93BF93EF93FF9310
:1030B0008091B900887F803609F49CC068F5883219
:1030C00009F45BC090F4803109F454C038F48823CB
:1030D00009F4F6C0883009F44DC0F5C0883109F410
:1030E0004CC0803209F45DC0EEC0803409F468C081
:1030F00048F4803309F455C0883309F0E4C0809364
:10310000FE09D8C0803509F44FC0883509F45DC088
:10311000883409F0D8C0D6C0883909F4C7C0A8F4EB
:10312000883709F467C038F4883609F463C08037FB
:1031300009F460C0C8C0883809F4B8C0803909F4FF
:103140005FC0803809F0BFC05BC0803B09F486C017
:1031500038F4803A09F466C0883A09F47FC0B3C0F5
:10316000803C09F4A7C0883C09F4A4C0883B09F45A
:103170008AC0A9C08091240A10C09091230A80912E
:10318000220A981770F5E091230A81E08E0F809350
:10319000230AF0E0EE5FF54F80818093BB0085EC61
:1031A00086C08093FE098EC0E091230A81E08E0FD5
:1031B0008093230A8091BB00F0E0EE5FF54F80839F
:1031C0009091230A8091220A6EC0E091230A81E047
:1031D0008E0F8093230A8091BB00F0E0EE5FF54FE5
:1031E00080838091010A81116DC081E08093000A83
:1031F00084EA61C083E08093FF091092820ACFCFF6
:103200008091820A803208F051C0E091820A81E008
:103210008E0F8093820A8091BB00F0E0EE59F54F4B
:103220008083BDCF85EC8093BC001092FF09809114
:10323000820A803230F4E091820AF0E0EE59F54FD4
:1032400010826091820A70E0E091600AF091610A58
:1032500082E69AE019951092820A35C084E0809344
:10326000FF0910925F0A10925E0AE0915C0AF091E9
:103270005D0A199580915E0A811105C081E08093F5
:103280005E0A10923C0AE0915F0A81E08E0F809303
:103290005F0AF0E0E45CF54F80818093BB00909181
:1032A0005F0A80915E0A981708F479CF85E88093C9
:1032B000BC0009C085EC8093BC001092FF0903C0DC
:1032C0001092FE0943DCFF91EF91BF91AF919F9166
:1032D0008F917F916F915F914F913F912F910F90BF
:1032E0000BBE0F900FBE0F901F9018954F925F92DC
:1032F0006F927F928F929F92AF92BF92CF92DF9206
:10330000EF92FF92CF93DF93CDB7DEB728970FB63A
:10331000F894DEBF0FBECDBF2496AEADBFAD2497EF
:103320008D919D910D90BC91A02D89839A83AB8343
:10333000BC832296EEADFFAD2297C080D180E280A3
:10334000F380AEADBFAD8D909D90AD90BC902E8DB5
:103350003F8D48A159A1C501B4010E9464682B01A9
:103360003C012AA53BA54CA55DA5C701B6010E945D
:1033700064689B01AC01C301B2010E94726F2B0112
:103380003C012EA93FA948AD59AD69817A818B8155
:103390009C810E9464689B01AC01C301B2010E9440
:1033A000726F6D837E838F8398872AA13BA14CA186
:1033B0005DA1C501B4010E9464682B013C012EA5EA
:1033C0003FA548A959A9C701B6010E9464689B019D
:1033D000AC01C301B2010E94726F2B013C012AAD06
:1033E0003BAD4CAD5DAD69817A818B819C810E9442
:1033F00064689B01AC01C301B2010E94726F2B0192
:103400003C012A8D3B8D4C8D5D8DC501B4010E9420
:1034100064684B015C012EA13FA148A559A5C701D5
:10342000B6010E9464689B01AC01C501B4010E9411
:10343000726F6B017C012AA93BA94CA95DA9698126
:103440007A818B819C810E9464689B01AC01C701D9
:10345000B6010E94726FEEADFFAD6083718382830F
:1034600093838D819E81AF81B8852296EEADFFADAD
:10347000229780839183A283B3832496AEADBFADA0
:1034800024974D925D926D927C92139728960FB679
:10349000F894DEBF0FBECDBFDF91CF91FF90EF90CC
:1034A000DF90CF90BF90AF909F908F907F906F9064
:1034B0005F904F9008951092E0071092DF071092EE
:1034C000DB071092DA07109207052C9808951F92D7
:1034D0000F920FB60F9211240BB60F922F933F93BA
:1034E0004F935F936F937F938F939F93AF93BF930C
:1034F000EF93FF938091510281111CC080910705C9
:1035000080933B0A882311F02C9A01C02C9880915B
:10351000080580933A0A9FB7882329F0F894809190
:103520000201806204C0F894809102018F7D809333
:1035300002019FBF90913B0A80915102981708F4B5
:103540002C9890913A0A80915102981740F49FB7B5
:10355000F894809102018F7D809302019FBF80913A
:1035600051028F5F8F77809351028091500290E0DB
:103570008930910508F044C0FC018827EA56FF4FC6
:103580008F4F0C94107388E080937B0085E48093C8
:103590007C0080917A00806480937A0081E019C079
:1035A00020917800309179008091360A9091370A05
:1035B000A091380AB091390A820F931FA11DB11D45
:1035C0008093360A9093370AA093380AB093390A49
:1035D00082E08093500214C083E0FBCF84E0F9CFF7
:1035E00085E0F7CF86E0F5CF87E0F3CF1092500269
:1035F0008091350A8F5F8093350A02C01092500285
:103600008091350A803108F4B7C080910605811198
:1036100010C08091360A9091370A9093340A8093B3
:10362000330A80912F0A9091300A90932E0A80934A
:103630002D0A81E0809306051092350A1092360A11
:103640001092370A1092380A1092390A1092290AF9
:1036500010922A0A10922B0A10922C0A1092250A14
:103660001092260A1092270A1092280A10922F0A06
:103670001092300A1092310A1092320A2091330AC5
:103680003091340A8091CB099091CC09821793072D
:10369000A4F111DF80919E0981112DC0E7E4F9E0CA
:1036A0008491882341F09091C00095FFFCCF8093D6
:1036B000C6003196F5CF60E070E0CB010E94EA478A
:1036C0008091C00085FFFCCF8AE08093C600EDEEBC
:1036D000F8E08491882341F09091C00095FFFCCFE1
:1036E0008093C6003196F5CF8091C00085FFFCCF56
:1036F0008AE08093C6000E94AC292091330A309161
:10370000340A80914E0290914F0228173907A4F194
:10371000D2DE80919E0981112DC0E7E4F9E0849109
:10372000882341F09091C00095FFFCCF8093C600A4
:103730003196F5CF60E070E0CB010E94EA478091BE
:10374000C00085FFFCCF8AE08093C600EAE1F9E083
:103750008491882341F09091C00095FFFCCF809325
:10376000C6003196F5CF8091C00085FFFCCF8AE07E
:103770008093C6000E94AC29FF91EF91BF91AF9159
:103780009F918F917F916F915F914F913F912F9179
:103790000F900BBE0F900FBE0F901F90189560E01A
:1037A0008091330A9091340A16D06093D6077093B3
:1037B000D7078093D8079093D907109202051092EB
:1037C000030510920405109205058FB7F894109226
:1037D00006058FBF08952F923F924F925F926F928E
:1037E0007F928F929F92AF92BF92CF92DF92EF9291
:1037F000FF920F931F93CF93DF93EC01662341F168
:10380000E7E4F9E08491882341F09091C00095FFAE
:10381000FCCF8093C6003196F5CF70E080E090E059
:103820000E94EA47E2E6F3E18491882341F0909117
:10383000C00095FFFCCF8093C6003196F5CF8091F4
:10384000C00085FFFCCF8AE08093C6000E94E72974
:1038500042E75AE081E090E0FA0125913491C217E5
:10386000D3070CF05DC09C0121503109220F331F9A
:10387000220F331FD901A059B54FFD0165917491F5
:103880002259354FF901A590B490FC01EE0FFF1FAE
:10389000EE0FFF1FE059F54FE590F490FD01C59044
:1038A000D490FA0105911491F90125903490072ED6
:1038B000000C880B990B0E94156C2B013C01CA1956
:1038C000DB09BE01DD0F880B990B0E94156C4B01C3
:1038D0005C01B7016C197D09072E000C880B990B50
:1038E0000E94156C9B01AC01C501B4010E94646883
:1038F0006B017C01B80162197309072E000C880B5B
:10390000990B0E94156C9B01AC01C701B6010E9486
:103910004E709B01AC01C301B2010E94726F11C0D5
:1039200001964C5F5F4F8D33910509F095CFE0E62E
:10393000FBE065917491072E000C880B990B0E9497
:10394000156CDF91CF911F910F91FF90EF90DF9059
:10395000CF90BF90AF909F908F907F906F905F902F
:103960004F903F902F9008952F923F924F925F92E9
:103970006F927F928F929F92AF92BF92CF92DF927F
:10398000EF92FF920F931F93CF93DF9300D01F927C
:10399000CDB7DEB780910605882309F4B0C1FFDEFC
:1039A000C090D607D090D707E090D807F090D907FD
:1039B0000091DF071091E007B801012E000C880B81
:1039C000990B0E94156CA70196010E94716F2B0143
:1039D0003C0160931F1E7093201E8093211E9093C4
:1039E000221E20E030E040EF51E40E949D71181645
:1039F0000CF4E9C020E030E040EF51ECC301B2012B
:103A00000E940F6C87FF04C081E080931E1EE5C0FA
:103A1000012BD1F380911E1E8111CAC020912D026D
:103A200030912E0240912F0250913002C301B20119
:103A30000E9464684B015C016093161E7093171E10
:103A40008093181E9093191E20911A1E30911B1EF0
:103A500040911C1E50911D1EC301B2010E94726F45
:103A60008B011C014090D41D5090D51D6090D61D37
:103A70007090D71D9201A3010E940F6C87FF84C034
:103A8000C201D30180931A1E90931B1EA0931C1E8B
:103A9000B0931D1E2091290230912A0240912B02E1
:103AA00050912C02B201C3010E94646869837A8339
:103AB0008B839C836093121E7093131E8093141E3D
:103AC0009093151E20910E1E30910F1E4091101ED6
:103AD0005091111EC701B6010E94716F20912502FD
:103AE0003091260240912702509128020E9464687A
:103AF00020ED3CEC4CE45DE30E9464682B013C014A
:103B000023E333E343E75FE360910A1E70910B1EEA
:103B100080910C1E90910D1E0E9464689B01AC0167
:103B2000C301B2010E94726F2B013C0160930A1E17
:103B300070930B1E80930C1E90930D1E29813A8169
:103B40004B815C81C501B4010E94726FA301920197
:103B50000E94716F4B015C0120E030E0A9010E94DE
:103B60000F6C87FD3AC020E030E048E453E4C50123
:103B7000B4010E949D7118169CF5812C912C98E43B
:103B8000A92E93E4B92E2CC04090D01D5090D11D89
:103B90006090D21D7090D31D9201A301B801C101A4
:103BA0000E949D7118160CF46BCF2801310168CF6B
:103BB00010921A1E10921B1E10921C1E10921D1E97
:103BC00010921E1E2BCF81E080931E1E812C912C03
:103BD0002FE7A22E23E4B22E03C0812C912C540196
:103BE000C0920E1ED0920F1EE092101EF092111E77
:103BF0006091CE1D7091CF1D072E000C880B990B84
:103C00000E94156C9B01AC01C701B6010E949D7119
:103C100018161CF0109207051AC060915602709198
:103C20005702072E000C880B990B0E94156C9B0104
:103C3000AC01C701B6010E940F6C87FFEBCFC50135
:103C4000B4010E94B6707595679560930705C7D952
:103C50000091061E1091071E2091081E3091091E2A
:103C6000DC01CB01801B910BA20BB30B853C99406F
:103C7000A105B10538F111E020E030E048E452E45C
:103C80006091D6077091D7078091D8079091D90796
:103C90000E949D7118160CF010E0F12EF19461E075
:103CA00080E162D86F2D80E130D86F2D70E080E127
:103CB00097D895D96093061E7093071E8093081EAF
:103CC0009093091E8CD90091021E1091031E209121
:103CD000041E3091051EDC01CB01801B910BA20B51
:103CE000B30B88389341A105B10548F078D96093AA
:103CF000021E7093031E8093041E9093051E0F9066
:103D00000F900F900F90DF91CF911F910F91FF9027
:103D1000EF90DF90CF90BF90AF909F908F907F906B
:103D20006F905F904F903F902F90089520912902BF
:103D300030912A0240912B0250912C0260E070E0F9
:103D40008FE793E40E944E706093D01D7093D11D55
:103D50008093D21D9093D31D08959091CD1D809195
:103D6000CC1D981721F000DE0E94212AF6CF08957D
:103D7000F4DF5F9AEFECF7E010828A9A11829FB726
:103D8000F894A8E0B1E08C9181608C939FBF12827F
:103D9000129A08951F920F920FB60F9211240BB62C
:103DA0000F920F931F932F933F934F935F936F93B4
:103DB0007F938F939F93AF93BF93CF93DF93EF93B3
:103DC000FF93E091001EF091011E309709F080C131
:103DD0009091CD1D8091CC1D981769F0E091CC1D7C
:103DE0002DE4E29FF0011124E457F54FDF01A45BBD
:103DF000BF4F81E08C93F093011EE093001E30973B
:103E000009F460C1DF01A45BBF4F21E02C93109245
:103E1000FC1D1092FD1D1092FE1D1092FF1D80AD25
:103E200091AD81343CE9930728F481326EE4960722
:103E300048F002C080E49CE9969587959695879511
:103E400024E007C0813177E2970730F09695879597
:103E500022E02093FB1D07C02093FB1D80329105BB
:103E600010F480E290E08097811528E09207E8F056
:103E7000E92FFF27EE0FFF1FEE0FFF1F9F012E59A7
:103E8000304FF901329665917491AA27879FA0015E
:103E9000869F410D5A1F06944A1F5A1F1124F9018B
:103EA00025913491241B350B20C09C013695279514
:103EB0002C7F2E59344FF90145915491F9013296D6
:103EC000A591B491BC0167707727A69F9001A79F29
:103ED000300DB69F300D112413E0369527951A95B5
:103EE000E1F7BA01621B730B9B012436310580F4A4
:103EF000E6EEF3E02191222339F03091C00035FF46
:103F0000FCCF2093C600F6CF0E94804824E630E024
:103F10003093FA1D2093F91D8091FB1D082E000C93
:103F2000990B9093F81D8093F71DE091001EF0917E
:103F3000011E84AD95AD9093F61D8093F51D8134DF
:103F40007CE9970728F481322EE4920748F002C0FA
:103F500080E49CE9969587959695879524E007C01F
:103F6000813137E2930730F09695879522E02093D0
:103F7000FB1D08C021E02093FB1D8032910510F449
:103F800080E290E08097811568E09607E8F0E92FDD
:103F9000FF27EE0FFF1FEE0FFF1F9F012E59304F1F
:103FA000F901329665917491AA27879FA001869F97
:103FB000410D5A1F06944A1F5A1F1124F9012591D9
:103FC0003491241B350B20C09C01369527952C7FFE
:103FD0002E59344FF90145915491F9013296A5912A
:103FE000B491BC0167707727A69F9001A79F300D01
:103FF000B69F300D112473E0369527957A95E1F739
:10400000BA01621B730B9B012436310580F4E6EE86
:10401000F3E02191222339F03091C00035FFFCCF2D
:104020002093C600F6CF0E94804824E630E0C90104
:10403000A0E0B0E08093F11D9093F21DA093F31DDA
:10404000B093F41D3093890020938800E091001E06
:10405000F091011E80899189A289B389B695A795AF
:1040600097958795B095A095909581959F4FAF4F67
:10407000BF4F8093ED1D9093EE1DA093EF1DB09365
:10408000F01D8093E91D9093EA1DA093EB1DB09362
:10409000EC1D8093E51D9093E61DA093E71DB09362
:1040A000E81D8093E11D9093E21DA093E31DB09362
:1040B000E41D1092DD1D1092DE1D1092DF1D109286
:1040C000E01D06C080ED97E0909389008093880002
:1040D000E091001EF091011E309709F402C580A105
:1040E0008093DC1D80FF03C0899A8FEF02C08998FE
:1040F00081E0809352028091DC1D81FF03C08F9A82
:104100008FEF02C08F9881E0809353029091DC1D65
:1041100090FD3CC0809100028823C1F1659902C0E6
:1041200080E032C08091DB1D882309F4D6C4E09181
:10413000001EF091011E408151816281738114162D
:104140001506160617060CF0C8C44091341E50918F
:10415000351E6091361E7091371E40939F09509313
:10416000A0096093A1097093A20981E08093AD0931
:1041700040895189628973894093DD1D5093DE1D0A
:104180006093DF1D7093E01D8093DB1D91FD3EC0A9
:10419000809100028823D1F18091030181FD02C04A
:1041A00080E032C08091DA1D882309F498C4E09140
:1041B000001EF091011E448155816681778114169D
:1041C0001506160617060CF08AC44091381E509149
:1041D000391E60913A1E70913B1E4093A309509383
:1041E000A4096093A5097093A60981E08093AC09A6
:1041F00040895189628973894093DD1D5093DE1D8A
:104200006093DF1D7093E01D8093DA1D92FF48C01C
:104210009FB7F89480910B01826080930B019FBF40
:104220008FEF8093540280910002882309F47DC0AF
:104230004A9902C080E031C08091D91D882361F184
:10424000E091001EF091011E80859185A285B385C5
:10425000181619061A061B06FCF480913C1E909154
:104260003D1EA0913E1EB0913F1E8093A7099093E2
:10427000A809A093A909B093AA0981E08093AB098A
:1042800080899189A289B3898093DD1D9093DE1D79
:10429000A093DF1DB093E01D81E08093D91D45C040
:1042A0009FB7F89480910B018D7F80930B019FBF86
:1042B00081E080935402909100029923B1F14B99CF
:1042C00002C080E030C09091D81D992359F1E0914F
:1042D000001EF091011E408551856285738514167C
:1042E000150616061706F4F440913C1E50913D1E2B
:1042F00060913E1E70913F1E4093A7095093A809FC
:104300006093A9097093AA098093AB098089918968
:10431000A289B3898093DD1D9093DE1DA093DF1DDC
:10432000B093E01D81E08093D81D8091DC1D83FF58
:1043300006C0169A8FEF8093550220E0A7C1169809
:1043400081E0F9CF8091C00087FDA6C1E091001EF9
:10435000F091011E4091ED1D5091EE1D6091EF1DF9
:104360007091F01D80819181A281B381840F951F8E
:10437000A61FB71F8093ED1D9093EE1DA093EF1D18
:10438000B093F01D181619061A061B06CCF5889A6C
:10439000E091001EF091011E8091ED1D9091EE1DA7
:1043A000A091EF1DB091F01D4089518962897389F8
:1043B000841B950BA60BB70B8093ED1D9093EE1D00
:1043C000A093EF1DB093F01D809152024091341ED6
:1043D0005091351E6091361E7091371E082E000CCC
:1043E000990BAA0BBB0B840F951FA61FB71F8093B9
:1043F000341E9093351EA093361EB093371E8898B6
:10440000E091001EF091011E4091E91D5091EA1DBE
:104410006091EB1D7091EC1D84819581A681B7811F
:10442000840F951FA61FB71F8093E91D9093EA1D67
:10443000A093EB1DB093EC1D181619061A061B0667
:10444000CCF58E9AE091001EF091011E8091E91D3D
:104450009091EA1DA091EB1DB091EC1D408951890E
:1044600062897389841B950BA60BB70B8093E91D9A
:104470009093EA1DA093EB1DB093EC1D8091530225
:104480004091381E5091391E60913A1E70913B1E2A
:10449000082E000C990BAA0BBB0B840F951FA61FAF
:1044A000B71F8093381E9093391EA0933A1EB09385
:1044B0003B1E8E98E091001EF091011E4091E51D7B
:1044C0005091E61D6091E71D7091E81D80859185F2
:1044D000A285B385840F951FA61FB71F8093E51D86
:1044E0009093E61DA093E71DB093E81D18161906DA
:1044F0001A061B060CF047C09FB7F89480910B0179
:10450000886080930B019FBFE091001EF091011E17
:104510008091E51D9091E61DA091E71DB091E81DE9
:104520004089518962897389841B950BA60BB70B4F
:104530008093E51D9093E61DA093E71DB093E81DC1
:104540008091540240913C1E50913D1E60913E1E50
:1045500070913F1E082E000C990BAA0BBB0B840F09
:10456000951FA61FB71F80933C1E90933D1EA093DE
:104570003E1EB0933F1E9FB7F89480910B01877F3A
:1045800080930B019FBFE091001EF091011E4091AE
:10459000E11D5091E21D6091E31D7091E41D848541
:1045A0009585A685B785840F951FA61FB71F809395
:1045B000E11D9093E21DA093E31DB093E41D181636
:1045C00019061A061B06CCF5149AE091001EF0910C
:1045D000011E8091E11D9091E21DA091E31DB0911B
:1045E000E41D4089518962897389841B950BA60B50
:1045F000B70B8093E11D9093E21DA093E31DB09350
:10460000E41D809155024091401E5091411E6091E1
:10461000421E7091431E082E000C990BAA0BBB0B77
:10462000840F951FA61FB71F8093401E9093411EB5
:10463000A093421EB093431E14988091DD1D90916B
:10464000DE1DA091DF1DB091E01D0196A11DB11DE1
:104650008093DD1D9093DE1DA093DF1DB093E01DC0
:104660004091DD1D5091DE1D6091DF1D7091E01DB8
:10467000E091001EF091011E80899189A289B38981
:10468000481759076A077B0710F52F5F8091FB1DBC
:1046900028170CF457CE1BC03091C6004091FA0485
:1046A0005091FB04CA0101968F7799276091FC0411
:1046B0007091FD048617970709F448CEFA01E65871
:1046C000FB4F30839093FB048093FA043FCE4091DC
:1046D000DD1D5091DE1D6091DF1D7091E01DE091A8
:1046E000001EF091011E84899589A689B7898417D7
:1046F0009507A607B70708F4D6C04091F11D509161
:10470000F21D6091F31D7091F41D048D158D268DA1
:10471000378DAA27419FB12D529FC001629F900DF6
:10472000619F800D911D429FB00D811D9A1F519F69
:10473000B00D811D9A1F609FB00D811D9A1F509F63
:10474000B10D8A1F9A1FB6958A1F9A1F112424AD96
:1047500035AD820F931F9093F61D8093F51D40ADEC
:1047600051AD62AD73ADA0E0B0E0481759076A07DC
:104770007B0720F45093F61D4093F51D8091F51DA5
:104780009091F61D81347CE9970728F481322EE45C
:10479000920748F002C080E49CE99695879596952B
:1047A000879524E007C0813137E2930730F0969572
:1047B000879522E02093FB1D08C021E02093FB1D7C
:1047C0008032910510F480E290E08097811568E0D6
:1047D0009607E8F0E92FFF27EE0FFF1FEE0FFF1FF0
:1047E0009F012E59304FF901329665917491AA2795
:1047F000879FA001869F410D5A1F06944A1F5A1F8A
:104800001124F90125913491241B350B20C09C0102
:10481000369527952C7F2E59344FF90145915491A7
:10482000F9013296A591B491BC0167707727A69FD4
:104830009001A79F300DB69F300D112413E03695DF
:1048400027951A95E1F7BA01621B730B9B01243679
:10485000310580F4E6EEF3E02191222339F0309126
:10486000C00035FFFCCF2093C600F6CF0E948048E1
:1048700024E630E030938900209388008091F11D78
:104880009091F21DA091F31DB091F41D820F931F22
:10489000A11DB11D8093F11D9093F21DA093F31DF6
:1048A000B093F41DF4C04091DD1D5091DE1D609168
:1048B000DF1D7091E01D808D918DA28DB38D8417C9
:1048C0009507A607B70708F0D6C04091FC1D509188
:1048D000FD1D6091FE1D7091FF1D048D158D268DAF
:1048E000378DAA27419FB12D529FE001629FD00DC5
:1048F000619FC00DD11D429FB00DC11DDA1F519F98
:10490000B00DC11DDA1F609FB00DC11DDA1F509F91
:10491000B10DCA1FDA1FB695CA1FDA1F1124809184
:10492000F51D9091F61DE05CFF4F8C179D0718F464
:104930008081918102C08C1B9D0B408151816281DD
:1049400073818C0120E030E0041715072607370734
:1049500008F4CA0181347CE9970728F481322EE4F7
:10496000920748F002C080E49CE996958795969559
:10497000879524E007C0813137E2930730F09695A0
:10498000879522E02093FB1D08C021E02093FB1DAA
:104990008032910510F480E290E08097811568E004
:1049A0009607E8F0E92FFF27EE0FFF1FEE0FFF1F1E
:1049B0009F012E59304FF901329665917491AA27C3
:1049C000879FA001869F410D5A1F06944A1F5A1FB8
:1049D0001124F90125913491241B350B20C09C0131
:1049E000369527952C7F2E59344FF90145915491D6
:1049F000F9013296A591B491BC0167707727A69F03
:104A00009001A79F300DB69F300D112463E03695BD
:104A100027956A95E1F7BA01621B730B9B01243657
:104A2000310580F4E6EEF3E02191222339F0309154
:104A3000C00035FFFCCF2093C600F6CF0E9480480F
:104A400024E630E030938900209388008091FC1D9B
:104A50009091FD1DA091FE1DB091FF1D820F931F2F
:104A6000A11DB11D8093FC1D9093FD1DA093FE1D03
:104A7000B093FF1D0CC08091F91D9091FA1D909389
:104A80008900809388008091F71D8093FB1D4091E1
:104A9000DD1D5091DE1D6091DF1D7091E01DE091E4
:104AA000001EF091011E80899189A289B38948175F
:104AB00059076A077B07A8F01092011E1092001E8A
:104AC0009091CD1D8091CC1D981759F08091CC1DEF
:104AD0008F5F8F738093CC1D04C081E055CB81E044
:104AE00093CBFF91EF91DF91CF91BF91AF919F91C8
:104AF0008F917F916F915F914F913F912F911F9176
:104B00000F910F900BBE0F900FBE0F901F90189536
:104B10001092AD091092AC091092AB0908954F9212
:104B20005F926F927F92AF92BF92CF92DF92EF929D
:104B3000FF920F931F93CF93DF938C01EB01FC0146
:104B400046A057A060A471A4AEA0BFA0C8A4D9A4D9
:104B50009501A601C301B2010E940F6C87FF3FC0FF
:104B6000A3019201C301B2010E9464682B013C01C0
:104B7000F80182A993A9A4A9B5A9BC01CD019058B7
:104B80009B01AC010E94726FF80126A537A540A9D0
:104B900051A90E9464689B01AC01C301B2010E944B
:104BA000716F0E9488727B018C019B01AC01B50181
:104BB000C6010E940F6C87FF02C075018601970134
:104BC000A801B501C6010E940F6C882341F0A7011E
:104BD000B8014EA35FA368A779A781E08EABDF91F0
:104BE000CF911F910F91FF90EF90DF90CF90BF90EA
:104BF000AF907F906F905F904F900895CF92DF922B
:104C0000EF92FF920F931F93CF93DF9300D01F92E9
:104C1000CDB7DEB785E9C82E87E0D82E98E7E92E14
:104C20009EE1F92E07EA17E0F601619171918191F9
:104C300091916F01F70121913191419151917F0142
:104C400029833A834B835C830E94136C29813A81C8
:104C50004B815C810E9464680E94BB70F801619383
:104C60007193819391938F01F5EACF16F7E0DF06F8
:104C7000D9F60F900F900F900F90DF91CF911F9169
:104C80000F91FF90EF90DF90CF9008951F93CF93F7
:104C9000DF931F92CDB7DEB7182F81E08093EF0925
:104CA0001093331E1092ED091092EE0982EF99E0F5
:104CB00049830E942D164981642F82EF99E00E945A
:104CC0002D168091EE09813208F046C09091FF09BF
:104CD0009111FCCF92E09093FF0991E09093010A2B
:104CE0009FEF9093FE091092230A8093220AADEC65
:104CF000B9E022E03AE0F9019E2F921B981718F4D0
:104D00009D919193F9CF1092240A8091240A110F5A
:104D1000812B8093240A8091000A813061F41092E3
:104D2000000A8091240A8093BB008091BC0083FD1F
:104D3000F8CF85EC01C085EE8093BC008091FF091F
:104D40008230E1F38091FE098F3F31F08091FE09BE
:104D5000803211F08091FE091092ED091092EE0957
:104D60001092EF090F90DF91CF911F9108952F922C
:104D70003F924F925F926F927F928F929F92AF92EB
:104D8000BF92CF92DF92EF92FF920F931F93CF9338
:104D9000DF93CDB7DEB72A970FB6F894DEBF0FBE0C
:104DA000CDBF98878F83FC01E05BFB4E7490880F2A
:104DB000991F880F991F9A8789878C5B914E1C01D8
:104DC000DC011D921D921D921C921397E0904C1EC7
:104DD000F0904D1E00914E1E10914F1E2091481EC6
:104DE0003091491E40914A1E50914B1E6091441EC5
:104DF0007091451E8091461E9091471E0E949448D6
:104E0000F1011082118212821382E0904C1EF09008
:104E10004D1E00914E1E10914F1E2091481E309144
:104E2000491E40914A1E50914B1E6091441E709144
:104E3000451E8091461E9091471E0E949448898588
:104E40009A858C5B9B4E0E949C464B015C01672DB2
:104E5000770C770B880B990B0E94156C2B013C018A
:104E600029853A852C57364F3A83298320E030E054
:104E700040EC5FE3C501B4010E946468A3019201A4
:104E80000E946468A981BA816D937D938D939C93F0
:104E9000139729853A8528563D4FD9018D919D91CB
:104EA0000D90BC91A02D8B839C83AD83BE8380939A
:104EB0004A0290934B02A0934C02B0934D0220E023
:104EC00030E040E752E4BC01CD010E944E704B013E
:104ED0005C01E0908C09F0908D0900918E09109191
:104EE0008F09209188093091890940918A09509150
:104EF0008B09609184097091850980918609909150
:104F00008709A3E8B9E0BF93AF93E0E9CE2EE9E0CB
:104F1000DE2E0E94BE350E94AD1E10920002D1010D
:104F20001D921D921D921C921397E0904C1EF090C2
:104F30004D1E00914E1E10914F1E2091481E309123
:104F4000491E40914A1E50914B1E6091441E709123
:104F5000451E8091461E9091471E0E949448E98507
:104F6000FA85E85CFB4E1F01CF010E949C469058D9
:104F7000A30192010E946468A981BA816D937D9317
:104F80008D939C93139720E030E040E752E46091CA
:104F90004A0270914B0280914C0290914D020E9406
:104FA0004E704B015C01E0908C09F0908D090091EE
:104FB0008E0910918F0920918809309189094091BB
:104FC0008A0950918B0960918409709185098091BB
:104FD000860990918709A3E8B9E0BF93AF930E9437
:104FE000BE350E94AD1E81E080930002C1010E9487
:104FF0009C469B01AC010E94726FA30192010E942A
:105000006468A981BA816D937D938D939C93139766
:1050100020E030E040E85EE36B817C818D819E8101
:105020000E94646860934A0270934B0280934C0222
:1050300090934D0220E030E040E752E40E944E7031
:105040004B015C01E0908C09F0908D0900918E0974
:1050500010918F09209188093091890940918A091E
:1050600050918B096091840970918509809186091E
:1050700090918709A3E8B9E0BF93AF930E94BE3532
:105080000E94AD1E29853A852359384F1901D9014F
:105090002D913D914D915C91C301B2010E946468D4
:1050A0000F900F900F900F900F900F9020E030E036
:1050B000A9010E940F6C87FF57C0E0904C1EF09032
:1050C0004D1E00914E1E10914F1E2091481E309192
:1050D000491E40914A1E50914B1E6091441E709192
:1050E000451E8091461E9091471E0E949448F101F2
:1050F00080819181A281B381E981FA81808391834A
:10510000A283B38320E030E040E752E460914A029A
:1051100070914B0280914C0290914D020E944E7012
:105120004B015C01E0908C09F0908D0900918E0993
:1051300010918F09209188093091890940918A093D
:1051400050918B096091840970918509809186093D
:1051500090918709A3E8B9E0BF93AF930E94BE3551
:105160000E94AD1E0F900F9089859A85845D9B4E9D
:105170000E949C4629853A852C5B314E7901098530
:105180001A850E51184FD8012D913D914D915C918A
:105190000E94726FF7016083718382839383898594
:1051A0009A85805E9B4E0E949C4629853A852C59A3
:1051B0003D4F5901D8012D913D914D915C910E9437
:1051C000726FF501608371838283938389859A85E9
:1051D0008C5E9B4E0E949C4629853A85285A3D4FFD
:1051E0005901D8012D913D914D915C910E94726FB2
:1051F000F501608371838283938329853A852C57D7
:10520000364FF70180819181A281B381F9018083BA
:105210009183A283B38310924A0210924B021092A0
:105220004C0210924D0274DCEF81F885E153F84F87
:1052300081E080832A960FB6F894DEBF0FBECDBF03
:10524000DF91CF911F910F91FF90EF90DF90CF9062
:10525000BF90AF909F908F907F906F905F904F9096
:105260003F902F9008951F93CF93DF93EC0180918F
:1052700083098093DC0784E50E94A246182F8111E0
:1052800002C010E064C00E94BD460E94BB706093E3
:10529000DC076623B1F3E8E6F5E09491992341F049
:1052A0008091C00085FFFCCF9093C6003196F5CF6A
:1052B000C936D10599F034F4C836D105C9F5EFE304
:1052C000F4E015C0CD36D10531F0CA3DD10581F5E8
:1052D000EAEFF3E02AC0E1E1F4E01DC0E8E2F4E027
:1052E00010C09091C00095FFFCCF8093C6008191C3
:1052F0008111F7CF1DC09091C00095FFFCCF809326
:10530000C60081918111F7CF13C09091C00095FF25
:10531000FCCF8093C60081918111F7CF09C0909195
:10532000C00095FFFCCF8093C60081918111F7CF1B
:105330008091DC079091C00095FFFCCF8093C60060
:105340008091C00085FFFCCF8AE08093C600812F4A
:10535000DF91CF911F9108950E945B1A80919E0961
:10536000811134C081E080939E09809165079091FE
:105370006607A0916707B0916807809369079093CB
:105380006A07A0936B07B0936C07E4EEF2E0849198
:10539000882341F09091C00095FFFCCF8093C60018
:1053A0003196F5CFEEE9F3E18491882341F09091B5
:1053B000C00095FFFCCF8093C6003196F5CF809159
:1053C000C00085FFFCCF8AE08093C6000895F89462
:1053D0000E945B1A5F9A1092CF078A9A1092D007A8
:1053E0009FB7F894809108018160809308019FBF66
:1053F0001092D107129A60E08CE00E94B416E4EE9D
:10540000F2E08491882341F09091C00095FFFCCF99
:105410008093C6003196F5CFEFE7F3E184918823BE
:1054200041F09091C00095FFFCCF8093C60031966B
:10543000F5CF8091C00085FFFCCF8AE08093C60045
:10544000FFCF4F925F926F927F928F929F92AF9217
:10545000BF92CF92DF92EF92FF920F931F93CF9361
:10546000DF930E94EF170091CB071091CC0720919A
:10547000CD073091CE07C0909A09D0909B09E0905B
:105480009C09F0909D09DC01CB018C199D09AE09A6
:10549000BF09081719072A073B0728F4012B022B1D
:1054A000032B09F094DF8091370290913802A0918C
:1054B0003902B0913A02892B8A2B8B2B21F10E9461
:1054C000EF1700919A0910919B0920919C09309146
:1054D0009D09DC01CB01801B910BA20BB30B00914A
:1054E0003702109138022091390230913A020817A0
:1054F00019072A073B0738F49091CD1D8091CC1DE8
:10550000981709F416C16091DD079091CC1D809128
:10551000CD1D981781F08091CC1D9DE4899FF001ED
:105520001124EC52F54F60819091CD1D891719F02F
:105530008F5F8F73F9CF70E089E00E94F016809141
:10554000E107882309F407C1C0904402D0904502C6
:10555000E0904602F09047026091DF077091E0070B
:10556000072E000C880B990B0E94156C20E030E090
:1055700040E050E40E94726F9601A7010E940F6CF8
:1055800087FDE9C0C091CC1D912CA12CB12CD0E09D
:105590008DE4882E8091CD1DC81709F456C08C2F3C
:1055A00090E0889EF001899EF00D1124E457F54F9C
:1055B0004081518162817381452B462B472B81F4B9
:1055C0004481558166817781452B462B472B41F4D9
:1055D0004085518562857385452B462B472B91F17C
:1055E000889E8001899E100D11240457154FF801E3
:1055F00064857585868597850E94156C2B013C0115
:10560000F80160897189828993890E94136C9B01DA
:10561000AC01C301B2010E944E70F80122A133A176
:1056200044A155A10E9464683B018C01292D3A2DAB
:105630004B2D5D2F0E949D71181624F4962CA72CDB
:10564000B02ED12FCF5FCF73A5CF20913B023091E9
:105650003C0240913D0250913E02692D7A2D8B2DE6
:105660009D2F0E9464689B01AC01B601C7010E9496
:10567000726F8B01D82FC92F9601A7010E940F6C62
:1056800087FF03C08601DE2DCF2DC0903F02D09052
:105690004002E0904102F09042029601A701B80159
:1056A0008D2F9C2F0E949D7118161CF48601DE2DF3
:1056B000CF2DC0902F1ED090301EE090311EF09064
:1056C000321E98014D2F5C2FC701B6010E949D71BB
:1056D0001816D4F420E037ED43EA5CE3B8018D2FCF
:1056E0009C2F0E9464684B015C0128E431EE4AE77C
:1056F0005FE3C701B6010E946468A50194010E949E
:10570000726F8B01D82FC92FC801AD2FBC2F80938A
:105710002F1E9093301EA093311EB093321EB801FD
:105720008D2F9C2F0E94B6707093E0076093DF0767
:1057300012C05F9A1092CF078A9A1092D0079FB733
:10574000F894809108018160809308019FBF1092B6
:10575000D107129AD8CEDF91CF911F910F91FF9070
:10576000EF90DF90CF90BF90AF909F908F907F9001
:105770006F905F904F9008952F923F924F925F925B
:105780006F927F928F929F92AF92BF92CF92DF9251
:10579000EF92FF920F931F93CF93DF93CDB7DEB7B6
:1057A000EF970FB6F894DEBF0FBECDBF382EC09076
:1057B000271ED090281EE090291EF0902A1E80906F
:1057C000231E9090241EA090251EB090261EA70197
:1057D0009601C501B4010E94AE7168A379A38AA3A2
:1057E0009BA380914A0290914B02A0914C02B091F0
:1057F0004D0288A799A7AAA7BBA7009148021091BC
:10580000490280918309898B2091441E3091451E65
:105810004091461E5091471EC501B4010E94726F0F
:1058200068AB79AB8AAB9BAB2091481E3091491E87
:1058300040914A1E50914B1EC701B6010E94726FE3
:105840006CAB7DAB8EAB9FAB80914C1E90914D1E8F
:10585000A0914E1EB0914F1E8C8F9D8FAE8FBF8F2B
:105860009C01AD0160918C0970918D0980918E0928
:1058700090918F090E94716F6CA37DA38EA39FA34B
:105880008091900990919109A0919209B09193090A
:105890008CA79DA7AEA7BFA78091501E9091511EC7
:1058A000A091521EB091531E88AF99AFAAAFBBAF63
:1058B0002401350177FA709477F87094D701C60106
:1058C000B0588C8B9D8BAE8BBF8B28A939A94AA968
:1058D0005BA96091840970918509809186099091F6
:1058E00087090E94716F6B017C012CA93DA94EA90B
:1058F0005FA9609188097091890980918A099091C6
:105900008B090E94716F4B015C01A7019601C301D5
:10591000B2010E946468688F798F8A8F9B8FA5017E
:1059200094016C897D898E899F890E9464689B019E
:10593000AC01688D798D8A8D9B8D0E94726F688F06
:10594000798F8A8F9B8FA5019401C301B2010E94B8
:1059500064684B015C01A70196016C897D898E8981
:105960009F890E9464689B01AC01C501B4010E943B
:10597000716F288D398D4A8D5B8D0E94E56F6B01AB
:105980007C0120E030E0A9010E940F6C87FF0AC073
:105990002BED3FE049EC50E4C701B6010E94726F65
:1059A0006B017C01332051F02BED3FE049EC50E4DA
:1059B000C701B6010E94716F6B017C0128A139A15A
:1059C0004AA15BA1C701B6010E9464682CA13DA158
:1059D0004EA15FA15F770E94AE714B015C012FE683
:1059E00032E143E85AE30E940F6C87FDC3C1C50151
:1059F000B4010E94E7700E94BB70798F688FDB0151
:105A0000AB2B21F4E1E0F0E0F98FE88FB801110F42
:105A1000880B990B0E94156C9B01AC0168A579A5B8
:105A20008AA59BA50E94646820E030E040E752E42C
:105A30000E944E7020E030E048EC52E40E944E702C
:105A400068A779A78AA79BA7288D398DB90180E01F
:105A500090E00E94136C4B015C019B01AC01C701FB
:105A6000B6010E944E7068A379A38AA39BA3A501E7
:105A700094016CA17DA18EA19FA10E944E706CAF7C
:105A80007DAF8EAF9FAF28AD39AD4AAD5BAD6CA594
:105A90007DA58EA59FA50E94716FA50194010E940E
:105AA0004E706CA77DA78EA79FA720E030E040E056
:105AB0005FE368A179A18AA19BA10E94646828A1E3
:105AC00039A14AA15BA10E9464689B01AC0160E01E
:105AD00070E080E89FE30E94716F6CA37DA38EA3AA
